:030000000208F4FF
:0C08F400787FE4F6D8FD75810D02080045
:10083700456E746572207468652076616C756520F5
:10084700666F72204C4544204F7065726174696F02
:100857006E20004C4544204F4E004C4544204F46E7
:02086700460049
:080915008F993099FDC299226F
:0B0900003098FDC298859908AF0822CE
:0408C100AB07AA06D1
:1008C5009000007C047DFBAF03AE021208AFD3E5B8
:1008D500829FEE6480F8E5836480985003A380E3EB
:0108E50022F0
:0E08E600758920D29C759850758DFDD28E229A
:060869008B0B8A0C890DC7
:10086F00E4FDFCAB0BAA0CA90D1208966018050D40
:10087F00E50D7002050C14F9120896FF1209150DFB
:06088F00BD00010C80DD3C
:010895002240
:0A090B007F0D1209157F0A0209157D
:10080000D290D2911208E67BFF7A087937120869F4
:1008100012090B120900BF310BC2907BFF7A0879D5
:100820005A120869120900BF32E9D2907BFF7A0898
:07083000796112086980DC08
:10089600BB010689828A83E0225002E722BBFE0260
:0908A600E32289828A83E4932293
:1008AF00EF8DF0A4A8F0CF8CF0A428CE8DF0A42E5D
:0208BF00FE2217
:00000001FF
