:030000000208F7FC
:0C08F700787FE4F6D8FD75810B020879CB
:1008E600456D6265646465642053797374656D73E0
:0108F6000001
:0300230002082BA5
:10082B00C0E0C0F0C083C082C0D075D000C000C093
:10083B0001C002C003C004C005C006C00712090FE7
:07084B008F0B12092E80FE45
:10087900E4F5A0F5B01208C3750B41120903AF0BDB
:1008890012092ED2AFD2AC7BFF7A0879E612089E04
:0508990012085680FE6C
:1008C3007F017E0012091A7F067E0012091A7F0C2F
:1008D3007E0012091A7F387E0012091A7F807E007B
:0308E30002091AED
:0A091A008FA0C2B4120852C2B62228
:0A0924008FA0D2B4120852C2B6220E
:08085200C2B5D2B67F017E00A1
:04085A00AB07AA0638
:10085E009000007C047DD2AF03AE02120819D3E5DE
:0A086E00829FE5839E5003A380E9FA
:01087800225D
:10089E008B088A09890AAB08AA09A90A120800FF5F
:1008AE0060127E001209247401250AF50AE4350946
:0508BE00F50980E222B3
:0C090300758920759850758DFDD28E22EC
:08092E008F993099FDC2992256
:0B090F003098FD85990BC298AF0B22B9
:10080000BB010689828A83E0225002E722BBFE02F6
:09081000E32289828A83E4932229
:10081900EF8DF0A4A8F0CF8CF0A428CE8DF0A42EF3
:02082900FE22AD
:00000001FF
