:0300000002087380
:0C087300787FE4F6D8FD75810B02085177
:0608920048454C4C4F00EC
:0E086500758920D29C759850758DFDD28E221B
:08088A008F993099FDC29922FB
:06082D008B088A09890A0C
:10083300E4FDFCAB08AA09A90A8D828C8312080087
:0D084300FF600A12088A0DBD00010C80E65E
:010850002285
:0B087F003098FD85990BC298AF0B224A
:100851001208657BFF7A08799212082D12087F121F
:04086100088A80F889
:10080000BB010CE58229F582E5833AF583E02250AD
:1008100006E92582F8E622BBFE06E92582F8E222F7
:0D082000E58229F582E5833AF583E4932211
:00000001FF
