:0300000002099062
:0C099000787FE4F6D8FD75811302092F72
:10094D0053686F7720796F7572205461672021008D
:0C095D005468616E6B20596F75202100FA
:0809A6008F993099FDC29922DE
:0809AE003098FDC298AF9922B8
:0408E900AB07AA06A9
:1008ED009000007C047DFBAF03AE021208D7D3E568
:1008FD00829FEE6480F8E5836480985003A380E3C3
:01090D0022C7
:0E098200758920D29C759850758DFDD28E22FD
:060864008B0E8A0F8910C3
:10086A00E4FDFCAB0EAA0FA9101208BE6018051011
:10087A00E5107002050F14F91208BEFF1209A60D41
:06088A00BD00010C80DD41
:010890002245
:0A099C007F0D1209A67F0A0209A6CA
:100969007F2812090E7F0112090E7F0E12090E7FD0
:090979000612090E7F8002090E2E
:10090E008F08E5087804A2E713D8FB120832C2A5B7
:10091E0012083AE508120832C2A57F0A7E000208C4
:01092E003E8A
:100891008F0DE50D7804A2E713D8FB540FF5A0D214
:1008A100A4120838C2A512083AE50D540FF5A0D2DA
:0D08B100A4120838C2A57F0A7E0002083E8E
:060800008B088A09890A39
:10080600E4F50BF50CAB08AA09A90A1208BE601B91
:10081600050AE50A7002050914F91208BEFF120856
:0B08260091050CE50C70DE050B80DA7C
:0108310022A4
:0C083200540FF5A0C2A4D2A57F0A7E00DE
:10083E00E4FDFCD3ED9FEE6480F8EC6480985015D7
:10084E00E4FBFA0BBB00010ABA04F8BBFCF50DBDC4
:05085E0000010C80DE2A
:010863002272
:10092F001209821209697BFF7A09794D1208007F3B
:0E093F00C012090E1209AE8F111209A680F621
:1008BE00BB010689828A83E0225002E722BBFE0238
:0908CE00E32289828A83E493226B
:1008D700EF8DF0A4A8F0CF8CF0A428CE8DF0A42E35
:0208E700FE22EF
:00000001FF
