:030000000208E211
:0C08E200787FE4F6D8FD75810A02089EBC
:1008C100456D62656464656420536F6C7574696F0E
:1008D1006E0053686168696420486173686D686976
:0108E1000016
:10087B007F387E001208EE7F017E001208EE7F06A5
:10088B007E001208EE7F0C7E001208EE7F807E0049
:03089B000208EE62
:0A08EE008FA0C2B0120854C2B2225B
:0A08F8008FA0D2B0120854C2B22241
:10082B008B088A09890AAB08AA09A90A1208006071
:10083B0017050AE50A7002050914F9120800FF33BF
:09084B0095E0FE1208F880DE229F
:08085400C2B1D2B27F017E00A7
:04085C00AB07AA0636
:100860009000007C047DFBAF03AE02120819D3E5B3
:0A087000829FE5839E5003A380E9F8
:01087A00225B
:10089E00E4F5A0F5B012087B7BFF7A0879C1120847
:1008AE002B7FC07E001208EE7BFF7A0879D31208E8
:0308BE002B80FE8E
:10080000BB010689828A83E0225002E722BBFE02F6
:09081000E32289828A83E4932229
:10081900EF8DF0A4A8F0CF8CF0A428CE8DF0A42EF3
:02082900FE22AD
:00000001FF
