:0300000002089360
:0C089300787FE4F6D8FD75810C0208ABFC
:03002300020800D0
:10080000C0E0C0F0C083C082C0D075D000C000C0BE
:1008100001C002C003C004C005C006C007E47F0DCC
:10082000FEFDFCAB0CAA0BA90AA809C3120856705E
:10083000EC1208868F081208B67F017E0012086746
:04084000050880D94E
:0B08AB0012089F750841D2AFD2AC22AA
:0C089F00758920759850758DFDD28E2251
:0A08B6008F99209904C29980F9225D
:0D08860020980585990880F8C298AF0822D7
:04086700AB07AA062B
:10086B009000007C047DD2AF03AE02120844D3E5A6
:0A087B00829FE5839E5003A380E9ED
:010885002250
:10084400EF8DF0A4A8F0CF8CF0A428CE8DF0A42EC8
:02085400FE2282
:10085600EB9FF5F0EA9E42F0E99D42F0E89C45F0F8
:01086600226F
:00000001FF
