:030000000208EA09
:0C08EA00787FE4F6D8FD75811702093113
:1009DC00506C656173652047697665207468652085
:0909EC00696E707574732021001E
:0D09F500030A686900060D746865726500EC
:1009B400120A037BFF7A0979DC1209767B007A003C
:1009C400790D120976209004740A8002740D2509A9
:0809D400F8E6F599120A0F2262
:060976008B138A148915A1
:10097C00AB13AA14A9158517828516837403120864
:10098C001912082A12080070E7AB13AA14A91585CE
:10099C0017828516837403120819E475F001120886
:0809AC005A120800FF020A0FB5
:0C0A0300758920759850758DFDD28E22EB
:080A0F008F993099FDC2992274
:1008F6000209B4E493A3F8E493A34003F68001F25B
:1009060008DFF48029E493A3F85407240CC8C33302
:10091600C4540F4420C8834004F456800146F6DFD1
:10092600E4800B01020408102040809009F5E47E63
:10093600019360BCA3FF543F30E509541FFEE493C6
:10094600A360010ECF54C025E060A840B8E493A38D
:10095600FAE493A3F8E493A3C8C582C8CAC583CAB8
:10096600F0A3C8C582C8CAC583CADFE9DEE780BE70
:010A020000F3
:10080000BB010689828A83E0225002E722BBFE02F6
:09081000E32289828A83E4932229
:10081900F5F0C582A4C582C5F0C583A42583F583F7
:0108290022AC
:10082A00BB010DE58229F582E5833AF5830208A525
:10083A005007E92582F802088CBBFE07E92582F8F1
:10084A000208C5E58229F582E5833AF5830208DEC6
:10085A00BB010DC58229C582C5833AC5830208AE8C
:10086A005008F8E92582C8020895BBFE08F8E92570
:10087A0082C80208CEC58229C582C5833AC58302C9
:02088A0008DE86
:09088C00E6FB08E6FA08E6F92291
:10089500FAE6FB0808E6F925F0F618E6CA3AF62264
:0908A500E0FBA3E0FAA3E0F92254
:1008AE00F8E0FBA3A3E0F925F0F0E58215827002D3
:0708BE001583E0FA38F02277
:0908C500E2FB08E2FA08E2F92264
:1008CE00FAE2FB0808E2F925F0F218E2CA3AF2223F
:0C08DE00E493FB740193FA740293F92276
:00000001FF
