:030000000208945F
:0C089400787FE4F6D8FD7581070208A00B
:03000300020800F0
:10080000C0E0C0F0C083C082C0D075D000C000C0BE
:1008100001C002C003C004C005C006C007C290D218
:100820009112084FD290C29112084FD290D291C229
:1008300092120851D007D006D005D004D003D002C0
:0F084000D001D000D0D0D082D083D0F0D0E03221
:0C08A000D2AFD2A8C290C291C29280F8E0
:06084F00D2927F057E003D
:04085500AB07AA063D
:100859009000007C007D64AF03AE02120882D3E5EC
:10086900829FE5839E5011E4FFFE0FBF00010EBE7B
:0808790004F8BFFCF5A380DBCD
:010881002254
:10088200EF8DF0A4A8F0CF8CF0A428CE8DF0A42E8A
:02089200FE2244
:00000001FF
