:03000000020800F3
:0C080000787FE4F6D8FD758129020847D6
:1009690053686F7720596F757220494420210041DF
:100979006363657373204772616E74656420210037
:100989004163636573732044656E69656420210062
:100A16000C083342303033423342383642440C14E9
:0C0A2600000000000000000000000000C4
:080A4B008F993099FDC2992238
:080A53003098FDC298AF992212
:0409F100AB07AA06A0
:1009F5009000007C047DFBAF03AE021209DFD3E556
:100A0500829FEE6480F8E5836480985003A380E3B9
:010A150022BE
:0E0A3300758920D29C759850758DFDD28E224B
:060999008B228A23892451
:10099F00E4FDFCAB22AA23A9241209C66018052482
:1009AF00E5247002052314F91209C6FF120A4B0D34
:0609BF00BD00010C80DD0B
:0109C500220F
:0A0A41007F0D120A4B7F0A020A4BD8
:1008FB00120A337BFF7A097969120999120A41E4CA
:10090B00F520F521120A5374142521F8A6070521A9
:10091B00E52170020520D3940CE520940040E57589
:10092B00250075260075271475280075290C7B008A
:10093B007A00790812088CEF70127BFF7A097978AC
:10094B0012099974142521F8E4F680B37BFF7A0918
:0E095B00798912099974142521F8E4F680A117
:10080C000208FBE493A3F8E493A34003F68001F2FF
:10081C0008DFF48029E493A3F85407240CC8C333ED
:10082C00C4540F4420C8834004F456800146F6DFBC
:10083C00E4800B0102040810204080900A16E47E2C
:10084C00019360BCA3FF543F30E509541FFEE493B1
:10085C00A360010ECF54C025E060A840B8E493A378
:10086C00FAE493A3F8E493A3C8C582C8CAC583CAA3
:10087C00F0A3C8C582C8CAC583CADFE9DEE780BE5B
:010A320000C3
:1009C600BB010689828A83E0225002E722BBFE022F
:0909D600E32289828A83E4932262
:1009DF00EF8DF0A4A8F0CF8CF0A428CE8DF0A42E2C
:0209EF00FE22E6
:10088C008B228A238924AB25AA26A9271209C6FE06
:10089C00AB22AA23A9241209C6FF6E702BEF600DA0
:1008AC00E52915297002152814452870037F0022AC
:1008BC0074012524F524E43523F52374012527F54B
:1008CC0027E43526F52680BEAB22AA23A9241209DB
:1008DC00C6FDD3EE6480F8ED64809840037F01225E
:0F08EC00AB25AA26A9271209C6FFC3ED9FFF223D
:00000001FF
