:03000000020800F3
:0C080000787FE4F6D8FD758124020847DB
:1008CF001A084142434445464748494A4B4C4D4E0E
:0C08DF004F505152535455565758595A17
:1008B10012090E74082523F8E6FF1208FE7F027E56
:0E08C1000012088C0523E52370E6052280E274
:0C090E00758920759850758DFDD28E22E1
:1008FE008F2474082523F8E6F5993099FDC29922C4
:04088C00AB07AA0606
:100890009000007C047DFBAF03AE021208ECC3E5C0
:1008A000829FEE6480F8E5836480985003A380E320
:0108B0002225
:10080C000208B1E493A3F8E493A34003F68001F249
:10081C0008DFF48029E493A3F85407240CC8C333ED
:10082C00C4540F4420C8834004F456800146F6DFBC
:10083C00E4800B01020408102040809008CFE47E75
:10084C00019360BCA3FF543F30E509541FFEE493B1
:10085C00A360010ECF54C025E060A840B8E493A378
:10086C00FAE493A3F8E493A3C8C582C8CAC583CAA3
:10087C00F0A3C8C582C8CAC583CADFE9DEE780BE5B
:0108EB00000C
:1008EC00EF8DF0A4A8F0CF8CF0A428CE8DF0A42E20
:0208FC00FE22DA
:00000001FF
