:030000000208E310
:0C08E300787FE4F6D8FD7581070208005C
:10080000D29020A30B20A20820A10530A002C29004
:1008100020A30B20A20830A10520A002D29020A383
:100820000B20A20830A10530A002C29020A30B30FB
:10083000A20820A10520A002D29020A30B30A2087C
:1008400020A10530A002C29020A30B30A20830A145
:100850000520A002D29020A30B30A20830A10530C1
:10086000A002C29030A30B20A20820A10520A00264
:10087000D29030A30B20A20820A10530A002C29084
:1008800030A30B20A20830A10520A002D29030A3F3
:100890000B20A20830A10530A002C29030A30B307B
:1008A000A20820A10520A002D29030A30B30A208FC
:1008B00020A10530A002C29030A30B30A20830A1C5
:1008C0000520A002D29020A30302080220A2030266
:1008D000080220A10302080220A003020802C2901D
:0308E00002080209
:00000001FF
