:030000000209D61C
:0C09D600787FE4F6D8FD7581120208C598
:1008690047534D20496E74657266616365207769E7
:1008790074682038303531004154443931333734C4
:10088900343031383600415441004154480039313F
:1008990033373434303138360048656C6C6F2D4A43
:1008A90055535420544553540041542B434D474606
:0C08B9003D310041542B434D47533D009E
:0609BA0014F9120949FFC7
:0809C0008F993099FDC29922C4
:0809EC003098FDC298AF99227A
:09091B007F0D1209C07F0A7E0065
:04092400AB07AA066D
:100928009000007C047DFBAF03AE02120962D3E5A0
:10093800829FEE6480F8E5836480985003A380E387
:01094800228C
:0E09C800758920D29C759850758DFDD28E22B7
:060974008B088A09890AC4
:10097A00E4FDFCAB08AA09A90A1209496012050A92
:10098A00E50A700205091209BA0DBD00010C80E3DF
:01099A00223A
:0A09E2007F0D1209C07F0A0209C050
:1008C5001209C81209207BFF7A0879691209741286
:1008D50009E220B40C7BFF7A08798112099B120981
:1008E5001B20B50C7BFF7A08798F12099B12091B17
:1008F50020B20C7BFF7A08799312099B12091B2001
:10090500B3D0750BFF750C08750DA27BFF7A0879BE
:060915009712080080BCEF
:10099B008B0E8A0F8910AB0EAA0FA9101209496092
:0F09AB000D0510E5107002050F1209BA80E82241
:100800008B088A09890A7BFF7A0879B212099B1240
:10081000091B7BFF7A0879BC12099B7F228019ABE8
:1008200008AA09A90A1209496013050AE50A700213
:10083000050914F9120949FF1209C080E27F22124A
:1008400009C012091BAB0BAA0CA90D120949600DB6
:10085000050DE50D7002050C1209BA80E87F1A1229
:0908600009C07F0A7E0002092490
:10094900BB010689828A83E0225002E722BBFE02AC
:09095900E32289828A83E49322DF
:10096200EF8DF0A4A8F0CF8CF0A428CE8DF0A42EA9
:02097200FE2263
:00000001FF
