:030000000209549E
:0C095400787FE4F6D8FD75810D020800E4
:1008DA00456D62656464656400546563686E6F7330
:1008EA006F6C7574696F6E73005368616869640030
:0708FA00486173686D69009D
:100800001209227BFF7A0879DA1208497FC012099F
:10081000017BFF7A0879E31208497F027E00120803
:10082000877F011209017F801209017BFF7A087915
:10083000F31208497FC01209017BFF7A0879FA1286
:0908400008497F1C12090180F92E
:100922007F281209017F011209017F0E1209017F3E
:09093200061209017F800209018F
:100901008F08E5087804A2E713D8FB12087BC2A57B
:10091100120883E50812087BC2A57F0A7E0002083F
:01092100874E
:1008AD008F0DE50D7804A2E713D8FB540FF5A0D2F8
:1008BD00A4120881C2A5120883E50D540FF5A0D22C
:0D08CD00A4120881C2A57F0A7E00020887E0
:060849008B088A09890AF0
:10084F00E4F50BF50CAB08AA09A90A12093B601BCA
:10085F00050AE50A7002050914F912093BFF12088F
:0B086F00AD050CE50C70DE050B80DA17
:01087A00225B
:0C087B00540FF5A0C2A4D2A57F0A7E0095
:10088700E4FDFCD3ED9FEE6480F8EC64809850158E
:10089700E4FBFA0BBB00010ABA04F8BBFCF50DBD7B
:0508A70000010C80DEE1
:0108AC002229
:10093B00BB010689828A83E0225002E722BBFE02BA
:09094B00E32289828A83E49322ED
:00000001FF
