:030000000209D121
:0C09D100787FE4F6D8FD75810A02095D0C
:1009C000456D6265646465642053797374656D7305
:0109D0000026
:1009A7007F011209DD7F061209DD7F0C1209DD7F49
:0909B700381209DD7F800209DD20
:0A09DD008FA0C2B0120936C2B22288
:0A09E7008FA0D2B0120936C2B2226E
:08093600C2B1D2B27F057E00C0
:04093E00AB07AA0653
:100942009000007C047DD2AF03AE02120924D3E5ED
:0A095200829FE5839E5003A380E915
:01095C002278
:100984008B088A09890AAB08AA09A90A12090BFF6C
:1009940060101209E77401250AF50AE43509F5091E
:0309A40080E422CA
:10080000D297D296D295D294C290D293D292D291CC
:1008100020940B7F371209E712093A3094FD209596
:100820000B7F381209E712093A3095FD20960B7FAD
:10083000391209E712093A3096FD20970B7F2512ED
:1008400009E712093A3097FDC291D293D292D29021
:1008500020940B7F341209E712093A3094FD209559
:100860000B7F351209E712093A3095FD20960B7F70
:10087000361209E712093A3096FD20970B7F58127D
:1008800009E712093A3097FDC292D293D291D290E1
:1008900020940B7F311209E712093A3094FD20951C
:1008A0000B7F321209E712093A3095FD20960B7F33
:1008B000331209E712093A3096FD20970B7F2D126B
:1008C00009E712093A3097FDC293D290D292D291A1
:1008D00020940B7F401209E712093A3094FD2095CD
:1008E0000B7F301209E712093A3095FD20960B7FF5
:1008F0003D1209E712093A3096FD20970B7F2B1223
:0B09000009E712093A3097FD7F002242
:10095D00E4F5A0F5B075900F1209A77BFF7A097920
:10096D00C01209847FC01209DD7F647E0012093E2A
:07097D00120800EF60FA22EE
:10090B00BB010689828A83E0225002E722BBFE02EA
:09091B00E32289828A83E493221D
:10092400EF8DF0A4A8F0CF8CF0A428CE8DF0A42EE7
:02093400FE22A1
:00000001FF
