:030000000208C132
:0C08C100787FE4F6D8FD75810A02089AE1
:1008B000456D6265646465642053797374656D7316
:0108C0000037
:10089A00E4F5A0F5B01208777BFF7A0879B0120860
:0608AA005212082F80FE2F
:100877007F017E001208CD7F067E001208CD7F0C17
:100887007E001208CD7F387E001208CD7F807E0063
:030897000208CD87
:0A08CD008FA0C2B412082BC2B6229D
:0A08D7008FA0D2B412082BC2B62283
:08082B00C2B5D2B67F017E00C8
:04083300AB07AA065F
:100837009000007C047DD2AF03AE02120819D3E505
:0A084700829FE5839E5003A380E921
:010851002284
:100852008B088A09890AAB08AA09A90A120800FFAB
:1008620060127E001208D77401250AF50AE43509E0
:05087200F50980E222FF
:10080000BB010689828A83E0225002E722BBFE02F6
:09081000E32289828A83E4932229
:10081900EF8DF0A4A8F0CF8CF0A428CE8DF0A42EF3
:02082900FE22AD
:00000001FF
