:030000000208A44F
:0C08A400787FE4F6D8FD75810D02087D18
:0808C5008F993099FDC29922C0
:0B08B0003098FDC29885990BAF0B2219
:04085800AB07AA063A
:10085C009000007C047DFBAF03AE02120846D3E58A
:10086C00829FEE6480F8E5836480985003A380E354
:01087C002259
:0E089600758920D29C759850758DFDD28E22EA
:060800008B088A09890A39
:10080600E4FDFCAB08AA09A90A12082D6018050A1E
:10081600E50A7002050914F912082DFF1208C50D24
:06082600BD00010C80DDA5
:01082C0022A9
:0A08BB007F0D1208C57F0A0208C570
:10087D0012089620B207C2907F311208C530B2F32C
:09088D00D2907F321208C580EA06
:10082D00BB010689828A83E0225002E722BBFE02C9
:09083D00E32289828A83E49322FC
:10084600EF8DF0A4A8F0CF8CF0A428CE8DF0A42EC6
:02085600FE2280
:00000001FF
